{
  "transactions": [
    {
      "hash": "0xcc07853984b3d9412a995f3ab41dbc20dacb46c5ca8b59eda0704bb4292cac18",
      "transactionType": "CREATE",
      "contractName": "ILMRegistry",
      "contractAddress": "0x36291d2d51a0122b9facbe3c3f989cc6b1f859b3",
      "function": null,
      "arguments": [
        "0x33EB4dEa4931e5d607531Fb08Bd393944aA01Faa"
      ],
      "transaction": {
        "from": "0x33eb4dea4931e5d607531fb08bd393944aa01faa",
        "to": null,
        "gas": "0xed639",
        "value": "0x0",
        "input": "0x608060405234801561001057600080fd5b50604051610cfb380380610cfb83398101604081905261002f91610118565b61003a60008261006c565b506100657f241ecf16d79d0f8dbfb92cbc07fe17840425976cf0667f022fe9877caa831b088261006c565b5050610148565b6000828152602081815260408083206001600160a01b038516845290915281205460ff1661010e576000838152602081815260408083206001600160a01b03861684529091529020805460ff191660011790556100c63390565b6001600160a01b0316826001600160a01b0316847f2f8788117e7eff1d82e926ec794901d17c78024a50270940304540a733656f0d60405160405180910390a4506001610112565b5060005b92915050565b60006020828403121561012a57600080fd5b81516001600160a01b038116811461014157600080fd5b9392505050565b610ba4806101576000396000f3fe608060405234801561001057600080fd5b50600436106100ea5760003560e01c806391d148541161008c578063adc0f4be11610066578063adc0f4be14610224578063d547741f14610237578063ec87621c1461024a578063fe89bac51461027157600080fd5b806391d14854146101a05780639b252755146101e4578063a217fddf1461021c57600080fd5b80632f2ff15d116100c85780632f2ff15d1461015d57806336568abe146101725780633884c86e146101855780633954c4021461019857600080fd5b806301ffc9a7146100ef578063248a9ca3146101175780632626077f14610148575b600080fd5b6101026100fd3660046109b1565b610284565b60405190151581526020015b60405180910390f35b61013a6101253660046109f3565b60009081526020819052604090206001015490565b60405190815260200161010e565b61015061031d565b60405161010e9190610a0c565b61017061016b366004610a8f565b61032e565b005b610170610180366004610a8f565b610359565b610170610193366004610abb565b6103b7565b61013a61043b565b6101026101ae366004610a8f565b60009182526020828152604080842073ffffffffffffffffffffffffffffffffffffffff93909316845291905290205460ff1690565b6101f76101f23660046109f3565b610447565b60405173ffffffffffffffffffffffffffffffffffffffff909116815260200161010e565b61013a600081565b610102610232366004610abb565b610454565b610170610245366004610a8f565b610461565b61013a7f241ecf16d79d0f8dbfb92cbc07fe17840425976cf0667f022fe9877caa831b0881565b61017061027f366004610abb565b610486565b60007fffffffff0000000000000000000000000000000000000000000000000000000082167f7965db0b00000000000000000000000000000000000000000000000000000000148061031757507f01ffc9a7000000000000000000000000000000000000000000000000000000007fffffffff000000000000000000000000000000000000000000000000000000008316145b92915050565b60606103296001610502565b905090565b60008281526020819052604090206001015461034981610516565b6103538383610523565b50505050565b73ffffffffffffffffffffffffffffffffffffffff811633146103a8576040517f6697b23200000000000000000000000000000000000000000000000000000000815260040160405180910390fd5b6103b2828261061f565b505050565b7f241ecf16d79d0f8dbfb92cbc07fe17840425976cf0667f022fe9877caa831b086103e181610516565b6103ec6001836106da565b5060405173ffffffffffffffffffffffffffffffffffffffff831681527f6b23e21a491458e66401b6503aac2f856ee2c6cd6ab52c73655d8ca91346032b906020015b60405180910390a15050565b600061032960016106fc565b6000610317600183610706565b6000610317600183610712565b60008281526020819052604090206001015461047c81610516565b610353838361061f565b7f241ecf16d79d0f8dbfb92cbc07fe17840425976cf0667f022fe9877caa831b086104b081610516565b6104bb600183610741565b5060405173ffffffffffffffffffffffffffffffffffffffff831681527f96e42790fd70cd1780160b8b5ff8495a7ba27d411ac01d421d2ec21692d065119060200161042f565b6060600061050f83610763565b9392505050565b61052081336107bf565b50565b60008281526020818152604080832073ffffffffffffffffffffffffffffffffffffffff8516845290915281205460ff166106175760008381526020818152604080832073ffffffffffffffffffffffffffffffffffffffff86168452909152902080547fffffffffffffffffffffffffffffffffffffffffffffffffffffffffffffff001660011790556105b53390565b73ffffffffffffffffffffffffffffffffffffffff168273ffffffffffffffffffffffffffffffffffffffff16847f2f8788117e7eff1d82e926ec794901d17c78024a50270940304540a733656f0d60405160405180910390a4506001610317565b506000610317565b60008281526020818152604080832073ffffffffffffffffffffffffffffffffffffffff8516845290915281205460ff16156106175760008381526020818152604080832073ffffffffffffffffffffffffffffffffffffffff8616808552925280832080547fffffffffffffffffffffffffffffffffffffffffffffffffffffffffffffff0016905551339286917ff6391f5c32d9c69d2a47ea670b442974b53935d1edc7fd64eb21e047a839171b9190a4506001610317565b600061050f8373ffffffffffffffffffffffffffffffffffffffff841661084d565b6000610317825490565b600061050f8383610894565b73ffffffffffffffffffffffffffffffffffffffff81166000908152600183016020526040812054151561050f565b600061050f8373ffffffffffffffffffffffffffffffffffffffff84166108be565b6060816000018054806020026020016040519081016040528092919081815260200182805480156107b357602002820191906000526020600020905b81548152602001906001019080831161079f575b50505050509050919050565b60008281526020818152604080832073ffffffffffffffffffffffffffffffffffffffff8516845290915290205460ff16610849576040517fe2517d3f00000000000000000000000000000000000000000000000000000000815273ffffffffffffffffffffffffffffffffffffffff821660048201526024810183905260440160405180910390fd5b5050565b600081815260018301602052604081205461061757508154600181810184556000848152602080822090930184905584548482528286019093526040902091909155610317565b60008260000182815481106108ab576108ab610ad6565b9060005260206000200154905092915050565b600081815260018301602052604081205480156109a75760006108e2600183610b05565b85549091506000906108f690600190610b05565b905080821461095b57600086600001828154811061091657610916610ad6565b906000526020600020015490508087600001848154811061093957610939610ad6565b6000918252602080832090910192909255918252600188019052604090208390555b855486908061096c5761096c610b3f565b600190038181906000526020600020016000905590558560010160008681526020019081526020016000206000905560019350505050610317565b6000915050610317565b6000602082840312156109c357600080fd5b81357fffffffff000000000000000000000000000000000000000000000000000000008116811461050f57600080fd5b600060208284031215610a0557600080fd5b5035919050565b6020808252825182820181905260009190848201906040850190845b81811015610a5a57835173ffffffffffffffffffffffffffffffffffffffff1683529284019291840191600101610a28565b50909695505050505050565b803573ffffffffffffffffffffffffffffffffffffffff81168114610a8a57600080fd5b919050565b60008060408385031215610aa257600080fd5b82359150610ab260208401610a66565b90509250929050565b600060208284031215610acd57600080fd5b61050f82610a66565b7f4e487b7100000000000000000000000000000000000000000000000000000000600052603260045260246000fd5b81810381811115610317577f4e487b7100000000000000000000000000000000000000000000000000000000600052601160045260246000fd5b7f4e487b7100000000000000000000000000000000000000000000000000000000600052603160045260246000fdfea26469706673582212206c6678b4e7fe9302d1fb4a693bc4d91367a73071e2f51d6feff7cbe5bb7ddba464736f6c6343000815003300000000000000000000000033eb4dea4931e5d607531fb08bd393944aa01faa",
        "nonce": "0x2b0",
        "chainId": "0x2105",
        "accessList": null,
        "type": null
      },
      "additionalContracts": [],
      "isFixedGasLimit": false
    },
    {
      "hash": "0x17450bdcd21d5fd1eecccc37850a287f27ecec066e32d20f1ed09b28362983fb",
      "transactionType": "CALL",
      "contractName": "ILMRegistry",
      "contractAddress": "0x36291d2d51a0122b9facbe3c3f989cc6b1f859b3",
      "function": "addILM(address)",
      "arguments": [
        "0x258730e23cF2f25887Cb962d32Bd10b878ea8a4e"
      ],
      "transaction": {
        "from": "0x33eb4dea4931e5d607531fb08bd393944aa01faa",
        "to": "0x36291d2d51a0122b9facbe3c3f989cc6b1f859b3",
        "gas": "0x1f028",
        "value": "0x0",
        "input": "0x3884c86e000000000000000000000000258730e23cf2f25887cb962d32bd10b878ea8a4e",
        "nonce": "0x2b1",
        "chainId": "0x2105",
        "accessList": null,
        "type": null
      },
      "additionalContracts": [],
      "isFixedGasLimit": false
    },
    {
      "hash": "0x3eaabfac8dc1ada85220c9666a6dd752231f33bfa29b62174007361531701641",
      "transactionType": "CALL",
      "contractName": "ILMRegistry",
      "contractAddress": "0x36291d2d51a0122b9facbe3c3f989cc6b1f859b3",
      "function": "addILM(address)",
      "arguments": [
        "0x2FB1bEa0a63F77eFa77619B903B2830b52eE78f4"
      ],
      "transaction": {
        "from": "0x33eb4dea4931e5d607531fb08bd393944aa01faa",
        "to": "0x36291d2d51a0122b9facbe3c3f989cc6b1f859b3",
        "gas": "0x1aba7",
        "value": "0x0",
        "input": "0x3884c86e0000000000000000000000002fb1bea0a63f77efa77619b903b2830b52ee78f4",
        "nonce": "0x2b2",
        "chainId": "0x2105",
        "accessList": null,
        "type": null
      },
      "additionalContracts": [],
      "isFixedGasLimit": false
    },
    {
      "hash": "0xd61f680c8b475d25649c03f816299e254b6c7ae16285bd8aac9c1744319e8a3f",
      "transactionType": "CALL",
      "contractName": "ILMRegistry",
      "contractAddress": "0x36291d2d51a0122b9facbe3c3f989cc6b1f859b3",
      "function": "grantRole(bytes32,address)",
      "arguments": [
        "0x0000000000000000000000000000000000000000000000000000000000000000",
        "0x639d2dD24304aC2e6A691d8c1cFf4a2665925fee"
      ],
      "transaction": {
        "from": "0x33eb4dea4931e5d607531fb08bd393944aa01faa",
        "to": "0x36291d2d51a0122b9facbe3c3f989cc6b1f859b3",
        "gas": "0x122f4",
        "value": "0x0",
        "input": "0x2f2ff15d0000000000000000000000000000000000000000000000000000000000000000000000000000000000000000639d2dd24304ac2e6a691d8c1cff4a2665925fee",
        "nonce": "0x2b3",
        "chainId": "0x2105",
        "accessList": null,
        "type": null
      },
      "additionalContracts": [],
      "isFixedGasLimit": false
    },
    {
      "hash": "0xa5046ad407a92226d2e75753eee248910ae79da86c809cbf7882609a20b5dc71",
      "transactionType": "CALL",
      "contractName": "ILMRegistry",
      "contractAddress": "0x36291d2d51a0122b9facbe3c3f989cc6b1f859b3",
      "function": "grantRole(bytes32,address)",
      "arguments": [
        "0x0000000000000000000000000000000000000000000000000000000000000000",
        "0xA1b5f2cc9B407177CD8a4ACF1699fa0b99955A22"
      ],
      "transaction": {
        "from": "0x33eb4dea4931e5d607531fb08bd393944aa01faa",
        "to": "0x36291d2d51a0122b9facbe3c3f989cc6b1f859b3",
        "gas": "0x122f4",
        "value": "0x0",
        "input": "0x2f2ff15d0000000000000000000000000000000000000000000000000000000000000000000000000000000000000000a1b5f2cc9b407177cd8a4acf1699fa0b99955a22",
        "nonce": "0x2b4",
        "chainId": "0x2105",
        "accessList": null,
        "type": null
      },
      "additionalContracts": [],
      "isFixedGasLimit": false
    },
    {
      "hash": "0x1e77d204bcb06d2dc678ae102a18d1f046775299412351b48584c984e62f0cc2",
      "transactionType": "CALL",
      "contractName": "ILMRegistry",
      "contractAddress": "0x36291d2d51a0122b9facbe3c3f989cc6b1f859b3",
      "function": "grantRole(bytes32,address)",
      "arguments": [
        "0x241ecf16d79d0f8dbfb92cbc07fe17840425976cf0667f022fe9877caa831b08",
        "0x639d2dD24304aC2e6A691d8c1cFf4a2665925fee"
      ],
      "transaction": {
        "from": "0x33eb4dea4931e5d607531fb08bd393944aa01faa",
        "to": "0x36291d2d51a0122b9facbe3c3f989cc6b1f859b3",
        "gas": "0x12526",
        "value": "0x0",
        "input": "0x2f2ff15d241ecf16d79d0f8dbfb92cbc07fe17840425976cf0667f022fe9877caa831b08000000000000000000000000639d2dd24304ac2e6a691d8c1cff4a2665925fee",
        "nonce": "0x2b5",
        "chainId": "0x2105",
        "accessList": null,
        "type": null
      },
      "additionalContracts": [],
      "isFixedGasLimit": false
    },
    {
      "hash": "0x80aa0f79794806d48886df4eaa4ca8b0459296121ad9e8ba46cf3a145446e3a7",
      "transactionType": "CALL",
      "contractName": "ILMRegistry",
      "contractAddress": "0x36291d2d51a0122b9facbe3c3f989cc6b1f859b3",
      "function": "grantRole(bytes32,address)",
      "arguments": [
        "0x241ecf16d79d0f8dbfb92cbc07fe17840425976cf0667f022fe9877caa831b08",
        "0xA1b5f2cc9B407177CD8a4ACF1699fa0b99955A22"
      ],
      "transaction": {
        "from": "0x33eb4dea4931e5d607531fb08bd393944aa01faa",
        "to": "0x36291d2d51a0122b9facbe3c3f989cc6b1f859b3",
        "gas": "0x12526",
        "value": "0x0",
        "input": "0x2f2ff15d241ecf16d79d0f8dbfb92cbc07fe17840425976cf0667f022fe9877caa831b08000000000000000000000000a1b5f2cc9b407177cd8a4acf1699fa0b99955a22",
        "nonce": "0x2b6",
        "chainId": "0x2105",
        "accessList": null,
        "type": null
      },
      "additionalContracts": [],
      "isFixedGasLimit": false
    },
    {
      "hash": "0x5da3f80ec284c0dc5b35f97b53887a36d75381e0c58a4079536b2e18de4e4ca9",
      "transactionType": "CALL",
      "contractName": "ILMRegistry",
      "contractAddress": "0x36291d2d51a0122b9facbe3c3f989cc6b1f859b3",
      "function": "revokeRole(bytes32,address)",
      "arguments": [
        "0x241ecf16d79d0f8dbfb92cbc07fe17840425976cf0667f022fe9877caa831b08",
        "0x33EB4dEa4931e5d607531Fb08Bd393944aA01Faa"
      ],
      "transaction": {
        "from": "0x33eb4dea4931e5d607531fb08bd393944aa01faa",
        "to": "0x36291d2d51a0122b9facbe3c3f989cc6b1f859b3",
        "gas": "0x9e9a",
        "value": "0x0",
        "input": "0xd547741f241ecf16d79d0f8dbfb92cbc07fe17840425976cf0667f022fe9877caa831b0800000000000000000000000033eb4dea4931e5d607531fb08bd393944aa01faa",
        "nonce": "0x2b7",
        "chainId": "0x2105",
        "accessList": null,
        "type": null
      },
      "additionalContracts": [],
      "isFixedGasLimit": false
    },
    {
      "hash": "0xf104e734a67fd3116f35f7061b71de6254ee5d3c79e32c42b911f64b0b8f7fb9",
      "transactionType": "CALL",
      "contractName": "ILMRegistry",
      "contractAddress": "0x36291d2d51a0122b9facbe3c3f989cc6b1f859b3",
      "function": "revokeRole(bytes32,address)",
      "arguments": [
        "0x0000000000000000000000000000000000000000000000000000000000000000",
        "0x33EB4dEa4931e5d607531Fb08Bd393944aA01Faa"
      ],
      "transaction": {
        "from": "0x33eb4dea4931e5d607531fb08bd393944aa01faa",
        "to": "0x36291d2d51a0122b9facbe3c3f989cc6b1f859b3",
        "gas": "0x91be",
        "value": "0x0",
        "input": "0xd547741f000000000000000000000000000000000000000000000000000000000000000000000000000000000000000033eb4dea4931e5d607531fb08bd393944aa01faa",
        "nonce": "0x2b8",
        "chainId": "0x2105",
        "accessList": null,
        "type": null
      },
      "additionalContracts": [],
      "isFixedGasLimit": false
    }
  ],
  "receipts": [
    {
      "status": "0x1",
      "cumulativeGasUsed": "0x4a8dca",
      "logs": [
        {
          "address": "0x36291d2d51a0122b9facbe3c3f989cc6b1f859b3",
          "topics": [
            "0x2f8788117e7eff1d82e926ec794901d17c78024a50270940304540a733656f0d",
            "0x0000000000000000000000000000000000000000000000000000000000000000",
            "0x00000000000000000000000033eb4dea4931e5d607531fb08bd393944aa01faa",
            "0x00000000000000000000000033eb4dea4931e5d607531fb08bd393944aa01faa"
          ],
          "data": "0x",
          "blockHash": "0x1fe1b1a2aa1b73dd7b968435b9e051ab4c3b22398bcc6a23d884052b4f1c721b",
          "blockNumber": "0xda25a2",
          "transactionHash": "0xcc07853984b3d9412a995f3ab41dbc20dacb46c5ca8b59eda0704bb4292cac18",
          "transactionIndex": "0x26",
          "logIndex": "0x5d",
          "removed": false
        },
        {
          "address": "0x36291d2d51a0122b9facbe3c3f989cc6b1f859b3",
          "topics": [
            "0x2f8788117e7eff1d82e926ec794901d17c78024a50270940304540a733656f0d",
            "0x241ecf16d79d0f8dbfb92cbc07fe17840425976cf0667f022fe9877caa831b08",
            "0x00000000000000000000000033eb4dea4931e5d607531fb08bd393944aa01faa",
            "0x00000000000000000000000033eb4dea4931e5d607531fb08bd393944aa01faa"
          ],
          "data": "0x",
          "blockHash": "0x1fe1b1a2aa1b73dd7b968435b9e051ab4c3b22398bcc6a23d884052b4f1c721b",
          "blockNumber": "0xda25a2",
          "transactionHash": "0xcc07853984b3d9412a995f3ab41dbc20dacb46c5ca8b59eda0704bb4292cac18",
          "transactionIndex": "0x26",
          "logIndex": "0x5e",
          "removed": false
        }
      ],
      "logsBloom": "0x00000004000100000000000000000000000000000000000000000000000000000000000000000000000000000000000000000000000000000000000000000000000000000020000010000000000000000000000000000000000000000000000000000000020000000004000000000800000000000000000000000000000000000000000000000000000000000000000000000000000000000000000000000000000000000000000000000020000000000000000000000000201040000000000000000000000000000000020000000000000000000000000100000000000020000000000000000000800000000000000000000000000000000000000000000000",
      "type": "0x2",
      "transactionHash": "0xcc07853984b3d9412a995f3ab41dbc20dacb46c5ca8b59eda0704bb4292cac18",
      "transactionIndex": "0x26",
      "blockHash": "0x1fe1b1a2aa1b73dd7b968435b9e051ab4c3b22398bcc6a23d884052b4f1c721b",
      "blockNumber": "0xda25a2",
      "gasUsed": "0xb6a88",
      "effectiveGasPrice": "0x97c7a33",
      "from": "0x33eb4dea4931e5d607531fb08bd393944aa01faa",
      "to": null,
      "contractAddress": "0x36291d2d51a0122b9facbe3c3f989cc6b1f859b3",
      "l1Fee": "0x4bd54ed9be",
      "l1GasPrice": "0x15cfdc060",
      "l1GasUsed": "0xc55c"
    },
    {
      "status": "0x1",
      "cumulativeGasUsed": "0x3954b7",
      "logs": [
        {
          "address": "0x36291d2d51a0122b9facbe3c3f989cc6b1f859b3",
          "topics": [
            "0x6b23e21a491458e66401b6503aac2f856ee2c6cd6ab52c73655d8ca91346032b"
          ],
          "data": "0x000000000000000000000000258730e23cf2f25887cb962d32bd10b878ea8a4e",
          "blockHash": "0xa25380581a576cbcefab23509d844978ba0fcc073d667bbba8a9462865aea85c",
          "blockNumber": "0xda25a6",
          "transactionHash": "0x17450bdcd21d5fd1eecccc37850a287f27ecec066e32d20f1ed09b28362983fb",
          "transactionIndex": "0x16",
          "logIndex": "0x6c",
          "removed": false
        }
      ],
      "logsBloom": "0x00000000000000000000000000000000000000000000000000000000000000000000000000000000000000000000000000000000020000000000000000000000000000000000000010000000000000000000000000000000000000000000000000000000000000000000000000000000000000000000000000000000000000000000000000000004000000000000000000000000000000000000000000000000000000000000000000000000000000000000000000000000200044000000000000000000000000000000000000000000000000000000000000000000000000000000000000000000000000000000000000000000000000000000000000000000",
      "type": "0x2",
      "transactionHash": "0x17450bdcd21d5fd1eecccc37850a287f27ecec066e32d20f1ed09b28362983fb",
      "transactionIndex": "0x16",
      "blockHash": "0xa25380581a576cbcefab23509d844978ba0fcc073d667bbba8a9462865aea85c",
      "blockNumber": "0xda25a6",
      "gasUsed": "0x16736",
      "effectiveGasPrice": "0x98322e7",
      "from": "0x33eb4dea4931e5d607531fb08bd393944aa01faa",
      "to": "0x36291d2d51a0122b9facbe3c3f989cc6b1f859b3",
      "contractAddress": null,
      "l1Fee": "0x2fcf110bc",
      "l1GasPrice": "0x1362a461e",
      "l1GasUsed": "0x8c0"
    },
    {
      "status": "0x1",
      "cumulativeGasUsed": "0x3ccde4",
      "logs": [
        {
          "address": "0x36291d2d51a0122b9facbe3c3f989cc6b1f859b3",
          "topics": [
            "0x6b23e21a491458e66401b6503aac2f856ee2c6cd6ab52c73655d8ca91346032b"
          ],
          "data": "0x0000000000000000000000002fb1bea0a63f77efa77619b903b2830b52ee78f4",
          "blockHash": "0x6a3b83f5f645ac3b185d3861d6639346579ce5f0d9a0415ce18714cff6db4688",
          "blockNumber": "0xda25aa",
          "transactionHash": "0x3eaabfac8dc1ada85220c9666a6dd752231f33bfa29b62174007361531701641",
          "transactionIndex": "0x1c",
          "logIndex": "0x48",
          "removed": false
        }
      ],
      "logsBloom": "0x00000000000000000000000000000000000000000000000000000000000000000000000000000000000000000000000000000000020000000000000000000000000000000000000010000000000000000000000000000000000000000000000000000000000000000000000000000000000000000000000000000000000000000000000000000004000000000000000000000000000000000000000000000000000000000000000000000000000000000000000000000000200044000000000000000000000000000000000000000000000000000000000000000000000000000000000000000000000000000000000000000000000000000000000000000000",
      "type": "0x2",
      "transactionHash": "0x3eaabfac8dc1ada85220c9666a6dd752231f33bfa29b62174007361531701641",
      "transactionIndex": "0x1c",
      "blockHash": "0x6a3b83f5f645ac3b185d3861d6639346579ce5f0d9a0415ce18714cff6db4688",
      "blockNumber": "0xda25aa",
      "gasUsed": "0x1246a",
      "effectiveGasPrice": "0x9889a24",
      "from": "0x33eb4dea4931e5d607531fb08bd393944aa01faa",
      "to": "0x36291d2d51a0122b9facbe3c3f989cc6b1f859b3",
      "contractAddress": null,
      "l1Fee": "0x2f77a509e",
      "l1GasPrice": "0x1362a461e",
      "l1GasUsed": "0x8b0"
    },
    {
      "status": "0x1",
      "cumulativeGasUsed": "0x2e10ca",
      "logs": [
        {
          "address": "0x36291d2d51a0122b9facbe3c3f989cc6b1f859b3",
          "topics": [
            "0x2f8788117e7eff1d82e926ec794901d17c78024a50270940304540a733656f0d",
            "0x0000000000000000000000000000000000000000000000000000000000000000",
            "0x000000000000000000000000639d2dd24304ac2e6a691d8c1cff4a2665925fee",
            "0x00000000000000000000000033eb4dea4931e5d607531fb08bd393944aa01faa"
          ],
          "data": "0x",
          "blockHash": "0xa13ffad3ee427409fd2391abd42ea6eb1d6f67b90069765f54a40f8d019a2800",
          "blockNumber": "0xda25ae",
          "transactionHash": "0xd61f680c8b475d25649c03f816299e254b6c7ae16285bd8aac9c1744319e8a3f",
          "transactionIndex": "0x18",
          "logIndex": "0x42",
          "removed": false
        }
      ],
      "logsBloom": "0x00000004000100000000000000000000000000000000000000000000000000000000000000000000000000000000000000000000000000000000000000800000000000000000000010000000100000000000000000000000000000000000000000000000020000000010000000000800000000000000000000000000000000000000000000000000000000000000000000000000000000000000000000000000000000000000000000000020000000000000000000000000201040000000000000000000000000000000000000000000000000000000000100000000000020000000000000000000800000000000000000000000000000000000000000000000",
      "type": "0x2",
      "transactionHash": "0xd61f680c8b475d25649c03f816299e254b6c7ae16285bd8aac9c1744319e8a3f",
      "transactionIndex": "0x18",
      "blockHash": "0xa13ffad3ee427409fd2391abd42ea6eb1d6f67b90069765f54a40f8d019a2800",
      "blockNumber": "0xda25ae",
      "gasUsed": "0xc6f2",
      "effectiveGasPrice": "0x990e95f",
      "from": "0x33eb4dea4931e5d607531fb08bd393944aa01faa",
      "to": "0x36291d2d51a0122b9facbe3c3f989cc6b1f859b3",
      "contractAddress": null,
      "l1Fee": "0x34ad4de52",
      "l1GasPrice": "0x1411ae767",
      "l1GasUsed": "0x950"
    },
    {
      "status": "0x1",
      "cumulativeGasUsed": "0x29758f",
      "logs": [
        {
          "address": "0x36291d2d51a0122b9facbe3c3f989cc6b1f859b3",
          "topics": [
            "0x2f8788117e7eff1d82e926ec794901d17c78024a50270940304540a733656f0d",
            "0x0000000000000000000000000000000000000000000000000000000000000000",
            "0x000000000000000000000000a1b5f2cc9b407177cd8a4acf1699fa0b99955a22",
            "0x00000000000000000000000033eb4dea4931e5d607531fb08bd393944aa01faa"
          ],
          "data": "0x",
          "blockHash": "0xa18240bc7a4e4edff0500fc5e2ff1cb93ef120f95ab083a4a20603b7abef1773",
          "blockNumber": "0xda25b1",
          "transactionHash": "0xa5046ad407a92226d2e75753eee248910ae79da86c809cbf7882609a20b5dc71",
          "transactionIndex": "0x15",
          "logIndex": "0x46",
          "removed": false
        }
      ],
      "logsBloom": "0x00000004000100000200000000000000000000000000000000000000000000000000000000000000000000000000000000000000000000000000000000000000000000000000100010000000000000000000000000000000000000000000000000000000020000000000000000000800000000000000000000000000000000000000000000000000000000000000000000000000000000000000000000000000000000000000000000000020000000000000000000000000201040000000000000000000000000000000000000000000000000000000000100000000000020000000004000000000800000000000000000000000000000000000000000000000",
      "type": "0x2",
      "transactionHash": "0xa5046ad407a92226d2e75753eee248910ae79da86c809cbf7882609a20b5dc71",
      "transactionIndex": "0x15",
      "blockHash": "0xa18240bc7a4e4edff0500fc5e2ff1cb93ef120f95ab083a4a20603b7abef1773",
      "blockNumber": "0xda25b1",
      "gasUsed": "0xc6f2",
      "effectiveGasPrice": "0x99af622",
      "from": "0x33eb4dea4931e5d607531fb08bd393944aa01faa",
      "to": "0x36291d2d51a0122b9facbe3c3f989cc6b1f859b3",
      "contractAddress": null,
      "l1Fee": "0x324f57fa1",
      "l1GasPrice": "0x1343a4e1c",
      "l1GasUsed": "0x944"
    },
    {
      "status": "0x1",
      "cumulativeGasUsed": "0x1b0b620",
      "logs": [
        {
          "address": "0x36291d2d51a0122b9facbe3c3f989cc6b1f859b3",
          "topics": [
            "0x2f8788117e7eff1d82e926ec794901d17c78024a50270940304540a733656f0d",
            "0x241ecf16d79d0f8dbfb92cbc07fe17840425976cf0667f022fe9877caa831b08",
            "0x000000000000000000000000639d2dd24304ac2e6a691d8c1cff4a2665925fee",
            "0x00000000000000000000000033eb4dea4931e5d607531fb08bd393944aa01faa"
          ],
          "data": "0x",
          "blockHash": "0xbd7887fdf6297fd6d03aad9f8642ee2610b690a47e2c2b963a0c953d77a9a8ea",
          "blockNumber": "0xda25b4",
          "transactionHash": "0x1e77d204bcb06d2dc678ae102a18d1f046775299412351b48584c984e62f0cc2",
          "transactionIndex": "0x16",
          "logIndex": "0x441",
          "removed": false
        }
      ],
      "logsBloom": "0x00000004000100000000000000000000000000000000000000000000000000000000000000000000000000000000000000000000000000000000000000800000000000000020000010000000100000000000000000000000000000000000000000000000000000000014000000000000000000000000000000000000000000000000000000000000000000000000000000000000000000000000000000000000000000000000000000000020000000000000000000000000201040000000000000000000000000000000020000000000000000000000000100000000000000000000000000000000800000000000000000000000000000000000000000000000",
      "type": "0x2",
      "transactionHash": "0x1e77d204bcb06d2dc678ae102a18d1f046775299412351b48584c984e62f0cc2",
      "transactionIndex": "0x16",
      "blockHash": "0xbd7887fdf6297fd6d03aad9f8642ee2610b690a47e2c2b963a0c953d77a9a8ea",
      "blockNumber": "0xda25b4",
      "gasUsed": "0xc872",
      "effectiveGasPrice": "0x988ad88",
      "from": "0x33eb4dea4931e5d607531fb08bd393944aa01faa",
      "to": "0x36291d2d51a0122b9facbe3c3f989cc6b1f859b3",
      "contractAddress": null,
      "l1Fee": "0x3ab58550b",
      "l1GasPrice": "0x1343a4e1c",
      "l1GasUsed": "0xad0"
    },
    {
      "status": "0x1",
      "cumulativeGasUsed": "0x6ae4b0",
      "logs": [
        {
          "address": "0x36291d2d51a0122b9facbe3c3f989cc6b1f859b3",
          "topics": [
            "0x2f8788117e7eff1d82e926ec794901d17c78024a50270940304540a733656f0d",
            "0x241ecf16d79d0f8dbfb92cbc07fe17840425976cf0667f022fe9877caa831b08",
            "0x000000000000000000000000a1b5f2cc9b407177cd8a4acf1699fa0b99955a22",
            "0x00000000000000000000000033eb4dea4931e5d607531fb08bd393944aa01faa"
          ],
          "data": "0x",
          "blockHash": "0x19044e4f49e56246d364fd79c837f19e25761e820012019110579177bab7eb04",
          "blockNumber": "0xda25b8",
          "transactionHash": "0x80aa0f79794806d48886df4eaa4ca8b0459296121ad9e8ba46cf3a145446e3a7",
          "transactionIndex": "0x1f",
          "logIndex": "0xa0",
          "removed": false
        }
      ],
      "logsBloom": "0x00000004000100000200000000000000000000000000000000000000000000000000000000000000000000000000000000000000000000000000000000000000000000000020100010000000000000000000000000000000000000000000000000000000000000000004000000000000000000000000000000000000000000000000000000000000000000000000000000000000000000000000000000000000000000000000000000000020000000000000000000000000201040000000000000000000000000000000020000000000000000000000000100000000000000000000004000000000800000000000000000000000000000000000000000000000",
      "type": "0x2",
      "transactionHash": "0x80aa0f79794806d48886df4eaa4ca8b0459296121ad9e8ba46cf3a145446e3a7",
      "transactionIndex": "0x1f",
      "blockHash": "0x19044e4f49e56246d364fd79c837f19e25761e820012019110579177bab7eb04",
      "blockNumber": "0xda25b8",
      "gasUsed": "0xc872",
      "effectiveGasPrice": "0x9a2a9f3",
      "from": "0x33eb4dea4931e5d607531fb08bd393944aa01faa",
      "to": "0x36291d2d51a0122b9facbe3c3f989cc6b1f859b3",
      "contractAddress": null,
      "l1Fee": "0x3a745d274",
      "l1GasPrice": "0x1343a4e1c",
      "l1GasUsed": "0xac4"
    },
    {
      "status": "0x1",
      "cumulativeGasUsed": "0x5aef5d",
      "logs": [
        {
          "address": "0x36291d2d51a0122b9facbe3c3f989cc6b1f859b3",
          "topics": [
            "0xf6391f5c32d9c69d2a47ea670b442974b53935d1edc7fd64eb21e047a839171b",
            "0x241ecf16d79d0f8dbfb92cbc07fe17840425976cf0667f022fe9877caa831b08",
            "0x00000000000000000000000033eb4dea4931e5d607531fb08bd393944aa01faa",
            "0x00000000000000000000000033eb4dea4931e5d607531fb08bd393944aa01faa"
          ],
          "data": "0x",
          "blockHash": "0xa3d8f13182c5d2919f232fd409e506e2403a6eabd4efa6e9e01a5f685668ed57",
          "blockNumber": "0xda25bc",
          "transactionHash": "0x5da3f80ec284c0dc5b35f97b53887a36d75381e0c58a4079536b2e18de4e4ca9",
          "transactionIndex": "0x27",
          "logIndex": "0x7e",
          "removed": false
        }
      ],
      "logsBloom": "0x00000000000100000000000000000000000000000000000000000000000000000000000000000000000000000000000000200000000000000000000000000000000000000020000010000000000000000000000000000000000000000000000040000000000000000004000000000000000000000000000000000000000000000000000040000000000000000000000000000000000000000000000000000000000000000000000000000020000000000000000000000000200040000000000000000000000000000000020000000000000000000000000000000000000000000000000000000000800000000000000000000000000000000000000000000000",
      "type": "0x2",
      "transactionHash": "0x5da3f80ec284c0dc5b35f97b53887a36d75381e0c58a4079536b2e18de4e4ca9",
      "transactionIndex": "0x27",
      "blockHash": "0xa3d8f13182c5d2919f232fd409e506e2403a6eabd4efa6e9e01a5f685668ed57",
      "blockNumber": "0xda25bc",
      "gasUsed": "0x72d4",
      "effectiveGasPrice": "0x9b0b925",
      "from": "0x33eb4dea4931e5d607531fb08bd393944aa01faa",
      "to": "0x36291d2d51a0122b9facbe3c3f989cc6b1f859b3",
      "contractAddress": null,
      "l1Fee": "0x3a1d7cf01",
      "l1GasPrice": "0x1343a4e1c",
      "l1GasUsed": "0xab4"
    },
    {
      "status": "0x1",
      "cumulativeGasUsed": "0x1abe26e",
      "logs": [
        {
          "address": "0x36291d2d51a0122b9facbe3c3f989cc6b1f859b3",
          "topics": [
            "0xf6391f5c32d9c69d2a47ea670b442974b53935d1edc7fd64eb21e047a839171b",
            "0x0000000000000000000000000000000000000000000000000000000000000000",
            "0x00000000000000000000000033eb4dea4931e5d607531fb08bd393944aa01faa",
            "0x00000000000000000000000033eb4dea4931e5d607531fb08bd393944aa01faa"
          ],
          "data": "0x",
          "blockHash": "0x0ae6ddca8b75c62a05e014efb13f83080d59e233777081b67dd6a3f33bddc098",
          "blockNumber": "0xda25bf",
          "transactionHash": "0xf104e734a67fd3116f35f7061b71de6254ee5d3c79e32c42b911f64b0b8f7fb9",
          "transactionIndex": "0x1f",
          "logIndex": "0x3e2",
          "removed": false
        }
      ],
      "logsBloom": "0x00000000000100000000000000000000000000000000000000000000000000000000000000000000000000000000000000200000000000000000000000000000000000000000000010000000000000000000000000000000000000000000000040000000020000000000000000000800000000000000000000000000000000000000000040000000000000000000000000000000000000000000000000000000000000000000000000000020000000000000000000000000200040000000000000000000000000000000000000000000000000000000000000000000000020000000000000000000800000000000000000000000000000000000000000000000",
      "type": "0x2",
      "transactionHash": "0xf104e734a67fd3116f35f7061b71de6254ee5d3c79e32c42b911f64b0b8f7fb9",
      "transactionIndex": "0x1f",
      "blockHash": "0x0ae6ddca8b75c62a05e014efb13f83080d59e233777081b67dd6a3f33bddc098",
      "blockNumber": "0xda25bf",
      "gasUsed": "0x6984",
      "effectiveGasPrice": "0x9a5ec91",
      "from": "0x33eb4dea4931e5d607531fb08bd393944aa01faa",
      "to": "0x36291d2d51a0122b9facbe3c3f989cc6b1f859b3",
      "contractAddress": null,
      "l1Fee": "0x32399fec4",
      "l1GasPrice": "0x1343a4e1c",
      "l1GasUsed": "0x940"
    }
  ],
  "libraries": [],
  "pending": [],
  "returns": {},
  "timestamp": 1715382392,
  "chain": 8453,
  "commit": "202515f"
}